:100000000C9434000C943E000C943E000C943E0082
:100010000C943E000C943E000C943E000C943E0068
:100020000C943E000C943E000C943E000C943E0058
:100030000C943E000C943E000C943E000C943E0048
:100040000C943E000C943E000C943E000C943E0038
:100050000C943E000C943E000C943E000C943E0028
:100060000C943E000C943E0011241FBECFEFD8E04C
:10007000DEBFCDBF0E949A000C94AD000C9400002E
:10008000F894E1E6F0E080818860808384B5836045
:1000900084BDE0EBF0E080818360808384B5806A7A
:1000A00084BD80818062808385B5836085BDE1EBFE
:1000B000F0E0808184608083789408958BB18779A3
:1000C0008BB98AB188668AB9089587BD68BD4093A7
:1000D000B40008958095853568F4982F990F980F8E
:1000E000282F220F220F821B815087BD18BC9093AE
:1000F000B40008958A3A70F48555982F990F990F96
:10010000282F291B922F9150282F220F820F17BCC6
:1001100088BDEDCF8A5A982F990F990F282F291B48
:10012000922F9150282F220F820F87BD98BD1092D9
:10013000B40008950E945E000E944000CAE52FEFBF
:1001400081EE94E0215080409040E1F700C0000033
:0E0150008C2F0E946A00C150F2CFF894FFCFAE
:00000001FF
