:100000000C9434000C9451000C9451000C94510049
:100010000C9451000C9451000C9451000C9451001C
:100020000C9451000C9451000C9451000C9451000C
:100030000C9451000C9451000C9451000C945100FC
:100040000C9451000C9451000C9451000C945100EC
:100050000C9451000C9451000C9451000C945100DC
:100060000C9451000C94510011241FBECFEFD8E026
:10007000DEBFCDBF11E0A0E0B1E0E8E8F3E002C0F0
:1000800005900D92A431B107D9F721E0A4E1B1E0C8
:1000900001C01D92A731B207E1F70E9466010C94DE
:1000A000C2010C940000F894E1E6F0E080818860E1
:1000B000808384B5836084BDE0EBF0E08081836061
:1000C000808384B5806A84BD80818062808385B5A9
:1000D000836085BDE1EBF0E080818560808378946A
:1000E00008958BB187798BB98AB188668AB90895EA
:1000F00067BD88BD4093B40008958095853550F460
:10010000982F990F890F982F909517BC98BD8093C1
:10011000B40008958A3A58F48555982F990F890F9D
:10012000982F909587BD18BC9093B40008958A5A73
:10013000982F990F890F982F909597BD88BD109291
:10014000B4000895AC016150962F262F291B291762
:1001500060F4DA01A20FB11D8C91FA01E90FF11DD3
:1001600020812C9380839150F0CF0895DF92EF92FD
:10017000FF920F931F93CF93DF93CDB7DEB76197B5
:100180000FB6F894DEBF0FBECDBF9B015EEF540FDC
:100190005F3018F0DB011C9252C0009729F480E315
:1001A000FB01808311824BC097FF08C04A3031F4B5
:1001B000919581959109DD24D39401C0D12C51E111
:1001C000E0E0F1E0DE01119601900D925A95E1F721
:1001D000E0E0E42EF12C6E2F70E01816190694F46E
:1001E0008901060F171FB7010E949A01A1E0B0E034
:1001F000AC0FBD1FA80FB91F8C91D8018C93CB01F8
:10020000EF5FE9CFDD2031F0D901A60FB71F8DE2F6
:100210008C93EF5FD901AE0FB11D1C926E2FC901F7
:1002200061960FB6F894DEBF0FBECDBFDF91CF91C0
:100230001F910F91FF90EF90DF900C94A2006196B8
:100240000FB6F894DEBF0FBECDBFDF91CF911F91E7
:100250000F91FF90EF90DF9008951092C50088E015
:100260008093C400E1ECF0E0808180618083808134
:100270008860808308959091C00095FFFCCF8093A3
:10028000C6000895CF93DF93EC018991882349F04C
:100290000E943B018FE19EE40197F1F700C000004E
:1002A000F4CFDF91CF9108958091C00087FFFCCFFC
:1002B0008091C6000895ECE7F0E08081806480833F
:1002C000EAE7F0E080818768808308950E942D012D
:1002D0000E945B010E9453000E94710080917A008D
:1002E000806480937A0080917A0086FDFCCFC09173
:1002F0007800D09179004AE064E171E0CE010E947B
:10030000B60084E191E00E94420181E191E00E9407
:100310004201CE0196958795969587950E947D001E
:100320002FEF8AE693E0215080409040E1F700C033
:100330000000D4CF97FB072E16F4009407D077FD6A
:1003400009D00E94AE0107FC05D03EF4909581953E
:100350009F4F0895709561957F4F0895AA1BBB1B11
:1003600051E107C0AA1FBB1FA617B70710F0A61BB5
:10037000B70B881F991F5A95A9F780959095BC01D6
:08038000CD010895F894FFCFB0
:100388003031323334353637383961626364656603
:04039800000A0D004A
:00000001FF
