:100000000C9434000C943E000C943E000C943E0082
:100010000C943E000C943E000C943E000C943E0068
:100020000C943E000C943E000C943E000C947C001A
:100030000C943E000C943E000C943E000C943E0048
:100040000C943E000C943E000C943E000C943E0038
:100050000C943E000C943E000C943E000C943E0028
:100060000C943E000C943E0011241FBECFEFD8E04C
:10007000DEBFCDBF0E94A2000C94A7000C9400002C
:100080001092C50088E08093C400E1ECF0E080812C
:10009000806180838081886080838EE08093C2004D
:1000A00008959091C00095FFFCCF8093C6000895FD
:1000B000F894E1E8F0E0808188608083808184604A
:1000C0008083808181608083EFE6F0E080818260C0
:1000D00080838FE090E09093890080938800109255
:1000E000850010928400789408958091C00087FF65
:1000F000FCCF8091C60008951F920F920FB60F9209
:1001000011242F933F934F935F936F937F938F931C
:100110009F93AF93BF93EF93FF930E9475000E944C
:100120005100FF91EF91BF91AF919F918F917F917E
:100130006F915F914F913F912F910F900FBE0F9054
:100140001F9018950E9440000E945800FFCFF8941D
:02015000FFCFDF
:00000001FF
