:100000000C9434000C9451000C9451000C94510049
:100010000C9451000C9451000C9451000C9451001C
:100020000C9451000C9451000C9451000C94DA0182
:100030000C9451000C9451000C9451000C945100FC
:100040000C9451000C9451000C9451000C945100EC
:100050000C9451000C9451000C9451000C945100DC
:100060000C9451000C94510011241FBECFEFD8E026
:10007000DEBFCDBF11E0A0E0B1E0E8E8F5E002C0EE
:1000800005900D92AA3EB107D9F722E0AAEEB1E0A1
:1000900001C01D92A83BB207E1F70E9492020C94A6
:1000A000C2020C9400001092C50088E08093C40046
:1000B000E1ECF0E0808180618083808188608083D2
:1000C0008081806880838EE08093C2000895909143
:1000D000C00095FFFCCF8093C6000895CF93DF93B7
:1000E000EC018991811103C0DF91CF9108950E94A5
:1000F00067008FE19EE40197F1F700C00000F1CFA7
:10010000FC01DB018D91BD01811102C010820895B7
:100110008193F7CF0F931F93CF93DF93CDB7DEB7C4
:100120008B01BC01CE0107960E948000B801CE0170
:10013000C9960E948000DF91CF911F910F91089581
:10014000F894E1E8F0E080818860808380818460B9
:100150008083808181608083EFE6F0E0808182602F
:1001600080838FE090E090938900809388001092C4
:10017000850010928400789408958091C00087FFD4
:10018000FCCF8091C60008958B3151F40E94BD00D0
:100190000E94BD009FEB980F43E050E09430B0F117
:1001A0004091EE015091EF014115510589F52091E3
:1001B000EC013091ED018F3789F4121613060CF023
:1001C00052C0F901EC5AFD4F108221503109309391
:1001D000ED012093EC0141E050E018C08A3011F0AD
:1001E0008D3039F42C5A3D4FF901108242E050E035
:1001F0000DC021333105D4F5F901EC5AFD4F808350
:100200002F5F3F4F3093ED012093EC01CA01089519
:100210002091EA013091EB018F3771F41216130629
:1002200014F5F901EA57FD4F10822150310930933E
:10023000EB012093EA01CFCF8A3011F08D3019F411
:100240002A573D4FD1CF2431310584F4F901EA57C3
:10025000FD4F80832F5F3F4F3093EB012093EA01E6
:1002600050E040E0D3CF44E050E0D0CF4BE350E04B
:10027000CDCFDC01FB019D912191921303C091111F
:10028000FACF292F892F990F990B821B910927FDEE
:1002900093950895FC012191CF01211101C008958A
:1002A000FC0131971082F6CF80EF91E00E946E0042
:1002B00083E291E00E946E0082E292E00E946E0072
:1002C00082E691E00E946E0066E271E084E592E0D1
:1002D0000E943901892BF1F56DE271E086E892E028
:1002E0000E943901892BB1F586E291E00E946E00EF
:1002F00085E391E00E946E0085B1876185B9289AF7
:100300005B982FEF80E792E0215080409040E1F72A
:1003100000C000005E9A86E892E00E944A0182E4F2
:1003200091E00E946E0084E592E00E944A011092E2
:10033000EB011092EA011092ED011092EC0185E6BA
:1003400091E00E946E0083E090E09093EF01809333
:10035000EE0108958BE991E00E946E0085B18761FE
:1003600085B95B985D9A86E892E00E944A0184E52F
:1003700092E00E944A011092EB011092EA01109261
:10038000ED011092EC011092EF011092EE012FEFAF
:1003900089E698E1215080409040E1F700C00000DC
:1003A00085B1887E85B95D9880E091E00E946E00FD
:1003B0005B9A08951F920F920FB60F9211242F93FC
:1003C0003F934F935F936F937F938F939F93AF93DD
:1003D000BF93CF93EF93FF930E94BD00C82F289A3D
:1003E0000E94C4002091EE013091EF0123303105CD
:1003F00079F586E892E00E944A0184E592E00E9445
:100400004A011092EB011092EA011092ED01109254
:10041000EC0180E091E00E946E001092EF011092DA
:10042000EE0185B1887E85B95E985B9AFF91EF9168
:10043000CF91BF91AF919F918F917F916F915F917C
:100440004F913F912F910F900FBE0F901F901895D5
:100450008130910531F485EB91E00E946E0028987F
:10046000E5CF82309105C1F482E691E00E946E00F2
:100470008091EE019091EF01892B59F489EB91E085
:100480000E946E0081E090E09093EF018093EE0176
:10049000E6CF0E945401E3CF009739F48AE2232B80
:1004A00009F48C2F0E946700DACFCB97C1F688EC55
:1004B00091E00E946E002FEF89E698E12150804084
:1004C0009040E1F700C0000085B1876185B986E8FA
:1004D00092E00E944A0184E592E00E944A01109253
:1004E000EB011092EA011092ED011092EC0185B13E
:1004F000887E85B980E091E00E946E002FEF83ED49
:1005000090E3215080409040E1F700C0000010923D
:10051000EF011092EE010E94BD000E94BD000E94FA
:10052000BD009DCFCF93DF93CDB7DEB7C85CD109B7
:100530000FB6F894DEBF0FBECDBF84B1876184B91A
:100540008AB188668AB95B9A0E94530088ECE0EF12
:10055000F1E0DE01119601900D928A95E1F760EECF
:1005600071E0CE0101960E94800065EE71E0CE013F
:10057000C3960E94800080E091E00E946E000E947D
:08058000A000FFCFF894FFCFAB
:10058800456E74657220796F7572204C6F67696E5D
:100598003A0D0A20202020757365726E616D653AE8
:1005A8002000002D2D0044454D533432004841436E
:1005B8004B494E4700204C6F6767656420696E0D94
:1005C8000A00436F72726563742050617373776FAA
:1005D800726420210D0A2057656C636F6D652021B8
:1005E80021210D0A00446F20796F752077616E74A0
:1005F80020746F206C6F67206F7574203F0D0A2080
:10060800507265737320616E79206B657920746F01
:10061800206C6F67206F75740D0A0042616420506A
:10062800617373776F72642C2054727920616761EB
:10063800696E0D0A000820080020202020506173F0
:1006480073776F72643A20000D0A204D6178206C30
:10065800656E67746820726561636865640D0A0079
:0A06680055737231005073773100B2
:00000001FF
