:100000000C9434000C9451000C9451000C94510049
:100010000C9451000C9451000C9451000C9451001C
:100020000C9451000C9451000C9451000C947200EB
:100030000C9451000C9451000C9451000C945100FC
:100040000C9451000C9451000C9451000C945100EC
:100050000C9451000C9451000C9451000C945100DC
:100060000C9451000C94510011241FBECFEFD8E026
:10007000DEBFCDBF11E0A0E0B1E0E2ECF1E002C0F4
:1000800005900D92A630B107D9F721E0A6E0B1E0C6
:1000900001C01D92A830B207E1F70E94B2000C9493
:1000A000DF000C940000F894E1E8F0E080818860C3
:1000B0008083808185608083EFE6F0E080818260CC
:1000C000808389E09DE3909389008093880010925B
:1000D000850010928400789408951BB8539A569A1C
:1000E000559A08951F920F920FB60F9211242F93D5
:1000F0005F936F937F938F939F93AF93BF93EF9390
:10010000FF931BB82BB1809106019091070163E02A
:1001100070E00E94B700FC01EE0FFF1FE050FF4FA0
:1001200081E090E0008002C0880F991F0A94E2F7F6
:10013000282B2BB98091060190910701019690938D
:10014000070180930601FF91EF91BF91AF919F91BD
:100150008F917F916F915F912F910F900FBE0F90B4
:100160001F9018950E9453000E946D00FFCF97FBCF
:10017000072E16F4009407D077FD09D00E94CB001B
:1001800007FC05D03EF4909581959F4F089570959A
:1001900061957F4F0895AA1BBB1B51E107C0AA1FA1
:1001A000BB1FA617B70710F0A61BB70B881F991F18
:1001B0005A95A9F780959095BC01CD010895F894C2
:0201C000FFCF6F
:0601C20005000600030029
:00000001FF
