:100000000C9434000C9449000C9449000C94490061
:100010000C9449000C9459000C9449000C9449002C
:100020000C9449000C9449000C9449000C9449002C
:100030000C9449000C9449000C9449000C9449001C
:100040000C9449000C9449000C9449000C9449000C
:100050000C9449000C9449000C9449000C944900FC
:100060000C9449000C94490011241FBECFEFD8E036
:10007000DEBFCDBF11E0A0E0B1E0EEE4F1E002C0F0
:1000800005900D92A230B107D9F70E9482000C941E
:10009000A5000C940000F894E8E6F0E0808184600C
:1000A0008083DA9AEDE6F0E0808184608083789442
:1000B00008951F920F920FB60F9211242F933F9322
:1000C0008F939F932FEF80E792E0215080409040E4
:1000D000E1F700C00000209100013091010181E0B2
:1000E00090E0232B11F080E090E090930101809349
:1000F00000019F918F913F912F910F900FBE0F9014
:100100001F901895209A0E944B0091E02FEF30E746
:1001100082E0215030408040E1F700C00000209193
:10012000000130910101232B89F7209100013091CA
:100130000101232B19F485B1892785B9209100018C
:0E01400030910101232BD1F3E1CFF894FFCFD2
:02014E000100AE
:00000001FF
