:100000000C9434000C9451000C9451000C94510049
:100010000C9451000C9451000C9451000C9451001C
:100020000C9451000C9451000C9451000C947400E9
:100030000C9451000C9451000C9451000C945100FC
:100040000C9451000C9451000C9451000C945100EC
:100050000C9451000C9451000C9451000C945100DC
:100060000C9451000C94510011241FBECFEFD8E026
:10007000DEBFCDBF11E0A0E0B1E0E8E6F1E002C0F4
:1000800005900D92A830B107D9F721E0A8E0B1E0C2
:1000900001C01D92A930B207E1F70E94A1000C94A3
:1000A000B2000C940000F894E1E8F0E080818860F0
:1000B0008083808185608083EFE6F0E080818260CC
:1000C000808389E09DE3909389008093880010925B
:1000D000850010928400789408958BB187798BB94C
:1000E0008AB188668AB908951F920F920FB60F924F
:1000F00011242F936F937F938F939F93EF93FF938D
:100100008BB187798BB92BB18091080167E00E9490
:10011000A600E92FF0E0E050FF4F8081282B2BB99B
:10012000809108018F5F80930801FF91EF919F916B
:100130008F917F916F912F910F900FBE0F901F9015
:1001400018950E9453000E946D00FFCF991B79E023
:1001500004C0991F961708F0961B881F7A95C9F757
:0801600080950895F894FFCF8B
:080168002040086048286800EF
:00000001FF
