:100000000C9434000C9451000C9451000C94510049
:100010000C9451000C9451000C9451000C9451001C
:100020000C9451000C9451000C9451000C9451000C
:100030000C9451000C9451000C9451000C945100FC
:100040000C9451000C9451000C9451000C945100EC
:100050000C9451000C9451000C9451000C945100DC
:100060000C9451000C94510011241FBECFEFD8E026
:10007000DEBFCDBF11E0A0E0B1E0E4EEF2E002C0EF
:1000800005900D92A032B107D9F725E0A0E2B1E0CA
:1000900001C01D92A232B207E1F70E9465010C94E3
:1000A00070010C9400009C01FC01AF01421B530B3A
:1000B0009191992311F09613F8CFCA0108950F93E7
:1000C0001F93CF938C0180E0F80161918F0190ED37
:1000D000960F9A3048F4C82FC295C07F80E091E017
:1000E0000E9453008C0FF0CF9FE9960F963098F343
:1000F000CF911F910F9108950F931F93CF93DF938B
:10010000CDB7DEB729970FB6F894DEBF0FBECDBFCF
:10011000FC0120812332E1F59F01281B390B41911D
:100120004111FACF2730310599F5FC013196AC0128
:10013000495F5F4F219130ED320F3A3018F0215670
:10014000263030F54E175F07A9F7FC0181818F83B8
:1001500082818887198683818C8384818D831E8226
:100160008581898386818A831B82CE0107960E94BE
:100170005F00182FCE0104960E945F00082FCE0169
:1001800001960E945F00482F602F812F0E9460011E
:1001900029960FB6F894DEBF0FBECDBFDF91CF9189
:1001A0001F910F910895CF938091C00087FF33C0B6
:1001B0000E943401C82F95B187E1892785B98C2F1A
:1001C0000E941B018091200190912101CA3091F081
:1001D000CD3081F08F3F23E09207ECF49C012F5F3C
:1001E0003F4F3093210120932001FC01EE5DFE4F33
:1001F000C08311C0FC01EE5DFE4F108282E291E0EF
:100200000E947C0010922101109220018CE191E06B
:10021000CF910C942201CF9108951092C50088E0EF
:100220008093C400E1ECF0E0808180618083808174
:100230008860808308959091C00095FFFCCF8093E3
:10024000C6000895CF93DF93EC018991882349F08C
:100250000E941B018FE19EE40197F1F700C00000AE
:10026000F4CFDF91CF9108958091C00087FFFCCF3C
:100270008091C60008958BB187798BB98AB1886661
:100280008AB90895F894E1E6F0E08081886080837F
:1002900084B5836084BDE0EBF0E08081836080837F
:1002A00084B5806A84BD80818062808385B58360E7
:1002B00085BDE1EBF0E080818560808378940895CE
:1002C00067BD88BD4093B40008950E940D010E944F
:1002D00042010E943B0181E191E00E942201FFCF97
:0402E000F894FFCFC0
:1002E40030313233343536373839616263646566A8
:1002F4000055415254205265616479210D0A000071
:00000001FF
