:100000000C9434000C9451000C9451000C94510049
:100010000C9451000C9451000C9451000C9451001C
:100020000C9451000C9451000C9451000C9451000C
:100030000C9451000C9451000C9451000C945100FC
:100040000C9451000C9451000C9451000C945100EC
:100050000C9451000C9451000C9451000C945100DC
:100060000C9451000C94510011241FBECFEFD8E026
:10007000DEBFCDBF11E0A0E0B1E0EEE5F3E002C0ED
:1000800005900D92A032B107D9F725E0A0E2B1E0CA
:1000900001C01D92A232B207E1F70E9491010C94B7
:1000A000AD010C9400001092C50088E08093C4005C
:1000B000E1ECF0E0808184608083808183608083D4
:1000C0008081876080838EE08093C2000895909144
:1000D000C00095FFFCCF8093C6000895CF93DF93B7
:1000E000EC018991811103C0DF91CF9108950E94A5
:1000F00067008FE19EE40197F1F700C00000F1CFA7
:100100008091C00087FFFCCF8091C60008959C01BC
:10011000FC01AF01421B530B9191992311F09613EF
:10012000F8CFCA0108950F931F93CF938C0180E0FD
:10013000F80161918F0190ED960F9A3040F09FE9A0
:10014000960F963020F0CF911F910F910895C82FF0
:10015000C295C07F80E091E00E9487008C0FE8CFBD
:1001600067BD88BD4093B4000895EF92FF920F934E
:100170001F93CF93DF93CDB7DEB728970FB6F894D0
:10018000DEBF0FBECDBFFC012081222319F0233238
:1001900009F041C08C017C01FFEFEF1AFF0AC70193
:1001A000801B910BF70161917F0161112EC00797B0
:1001B00091F5F80181818F8382818887CE0107962E
:1001C0000E949300E82EF80183818C8384818D83C3
:1001D0001E82CE0104960E949300F82EF8018581BC
:1001E000898386818A831B82CE0101960E949300B7
:1001F000811106C0F11004C095B127E1922795B98D
:1002000087BDE8BCF092B40006C080E091E00E9497
:100210008700419724F228960FB6F894DEBF0FBEF0
:10022000CDBFDF91CF911F910F91FF90EF90089577
:10023000CF930E948000C82F0E94670085B197E18C
:10024000892785B98091200190912101CA3079F0E8
:10025000CD3069F09C012F5F3F4F309321012093F7
:1002600020018E5D9E4FFC01C083CF9108958E5D6D
:100270009E4FFC01108282E291E00E94B500109234
:100280002201F3CFF89484B5836084BDE0EBF0E005
:1002900080818360808384B5806A84BD8081806230
:1002A000808385B5836085BDE1EBF0E0808184606B
:1002B0008083789408958BB187798BB98AB18866E9
:1002C0008AB908958095853568F4982F990F980F0D
:1002D000282F220F220F821B815017BC88BD9093BC
:1002E000B40008958A3A70F48555982F990F990FA4
:1002F000282F291B922F9150282F220F820F87BD64
:1003000018BCEDCF8A5A982F990F990F282F291BC7
:100310002150982F990F890F27BD88BD1092B400E6
:1003200008950E9453000E9442012FEF81EE94E055
:10033000215080409040E1F700C000000E945B0126
:1003400081E191E00E946E000E9418018FE39CE918
:0E0350000197F1F700C00000F7CFF894FFCF3F
:10035E00303132333435363738396162636465662D
:10036E000055415254205265616479210D0A0000F6
:00000001FF
