:100000000C9434000C9451000C9451000C94510049
:100010000C9451000C9451000C9451000C9451001C
:100020000C9451000C9451000C9451000C9451000C
:100030000C9451000C9451000C9451000C945100FC
:100040000C9451000C9451000C9451000C945100EC
:100050000C9451000C9451000C9451000C945100DC
:100060000C9451000C94510011241FBECFEFD8E026
:10007000DEBFCDBF11E0A0E0B1E0E6E0F3E002C0FA
:1000800005900D92A032B107D9F725E0A0E2B1E0CA
:1000900001C01D92A232B207E1F70E9462010C94E6
:1000A00081010C9400008FEF8093C5008093C40001
:1000B000E1ECF0E0808184608083808183608083D4
:1000C00086E08093C20008959091C00095FFFCCF18
:1000D0008093C6000895CF93DF93EC018991882324
:1000E00049F00E9464008FE19EE40197F1F700C09F
:1000F0000000F4CFDF91CF9108958091C00087FF79
:10010000FCCF8091C60008959C01FC01AF01421B09
:10011000530B9191992311F09613F8CFCA010895CA
:100120000F931F93CF938C0180E0F80161918F01B1
:1001300090ED960F9A3048F4C82FC295C07F80E0AA
:1001400091E00E9484008C0FF0CF9FE9960F9630CB
:1001500098F3CF911F910F91089567BD88BD40938B
:10016000B40008950F931F93CF93DF93CDB7DEB7FD
:1001700029970FB6F894DEBF0FBECDBFFC012081DA
:100180002332D9F59F01281B390B41914111FACF38
:100190002730310591F5FC013196AC01495F5F4F85
:1001A000219130ED320F3A3018F02156263028F5E3
:1001B0004E175F07A9F7FC0181818F8382818887B1
:1001C000198683818C8384818D831E8285818983B6
:1001D00086818A831B82CE0107960E949000182F89
:1001E000CE0104960E949000082FCE0101960E9435
:1001F000900007BD18BD8093B40029960FB6F894FF
:10020000DEBF0FBECDBFDF91CF911F910F9108953B
:10021000CF938091C00087FF2EC00E947D00C82F21
:1002200095B187E1892785B98C2F0E946400809160
:10023000200190912101CA3091F0CD3081F08F3FA3
:1002400023E09207C4F49C012F5F3F4F30932101BC
:1002500020932001FC01EE5DFE4FC0830CC0FC0129
:10026000EE5DFE4F108282E291E00E94B200109299
:10027000210110922001CF910895F894E1E6F0E079
:1002800080818860808384B5836084BDE0EBF0E08A
:1002900080818360808384B5806A84BD8081806230
:1002A000808385B5836085BDE1EBF0E0808184606B
:1002B0008083789408958BB187798BB98AB18866E9
:1002C0008AB908950E943D010E9453002FEF81EEEC
:1002D00094E0215080409040E1F700C000000E946F
:1002E0005B0181E191E00E946B00C1E4C093C60014
:1002F0000E9408018FE39CE90197F1F700C000001C
:06030000F5CFF894FFCFD9
:100306003031323334353637383961626364656685
:100316000055415254205265616479210D0A00004E
:00000001FF
