:100000000C9434000C9451000C9451000C94510049
:100010000C9451000C9451000C9451000C9451001C
:100020000C9451000C9451000C9451000C9451000C
:100030000C9451000C9451000C9451000C945100FC
:100040000C9451000C9451000C9451000C945100EC
:100050000C9451000C9451000C9451000C945100DC
:100060000C9451000C94510011241FBECFEFD8E026
:10007000DEBFCDBF11E0A0E0B1E0E4EDF3E002C0EF
:1000800005900D92A832B107D9F721E0A8E2B1E0BE
:1000900001C01D92AA32B207E1F70E94F6000C944B
:1000A000E8010C940000219AE0E8F0E0808180688B
:1000B0008083808182608083E1E8F0E080818861D4
:1000C00080838081856080831092850010928400F7
:1000D00084E89EE19093870080938600E091280158
:1000E000F0912901EE0FFF1FEE0FFF1FE050FF4FB1
:1000F00020E030E244EF55E4608171818281938198
:100100000E9453010E94FB00709389006093880055
:1001100008954A9B03C04C9968C034C02FEF80E714
:1001200092E0215080409040E1F700C000004A99E1
:1001300026C08091280190912901893091052CF4E5
:1001400001969093290180932801E0912801F09174
:100150002901EE0FFF1FEE0FFF1FE050FF4F20E0C1
:1001600030E244EF55E460817181828193810E9485
:1001700053010E94FB0070938900609388004A9BA2
:10018000FECFC9CF2FEF80E792E021508040904012
:10019000E1F700C000004C9926C0809128019091A1
:1001A0002901823091052CF00197909329018093C9
:1001B0002801E0912801F0912901EE0FFF1FEE0FB9
:1001C000FF1FE050FF4F20E030E244EF55E4608134
:1001D0007181828193810E9453010E94FB00709380
:1001E0008900609388004C9BFECF08950E945300C5
:1001F0000E948900FDCF0E94320188F09F5798F03D
:10020000B92F9927B751B0F0E1F0660F771F881F1B
:10021000991F1AF0BA95C9F714C0B13091F00E9435
:100220004C01B1E008950C944C01672F782F88277A
:10023000B85F39F0B93FCCF3869577956795B3955C
:10024000D9F73EF490958095709561957F4F8F4FCB
:100250009F4F089557FD9058440F551F59F05F3F29
:1002600071F04795880F97FB991F61F09F3F79F0D8
:1002700087950895121613061406551FF2CF46955A
:10028000F1DF08C0161617061806991FF1CF8695DC
:100290007105610508940895E894BB2766277727C0
:1002A000CB0197F908950E9466010C94D7010E9432
:1002B000C90138F00E94D00120F0952311F00C9470
:1002C000C0010C94C60111240C944D010E942A0116
:1002D00070F3959FC1F3950F50E0551F629FF00199
:1002E000729FBB27F00DB11D639FAA27F00DB11DB2
:1002F000AA1F649F6627B00DA11D661F829F22273B
:10030000B00DA11D621F739FB00DA11D621F839FC1
:10031000A00D611D221F749F3327A00D611D231F97
:10032000849F600D211D822F762F6A2F11249F57E5
:1003300050409AF0F1F088234AF0EE0FFF1FBB1FE8
:10034000661F771F881F91505040A9F79E3F5105A7
:1003500080F00C94C0010C944D015F3FE4F3983E93
:10036000D4F3869577956795B795F795E7959F5F51
:10037000C1F7FE2B880F911D9695879597F90895E3
:1003800097F99F6780E870E060E008959FEF80EC48
:10039000089500240A9416161706180609060895EB
:1003A00000240A9412161306140605060895092E51
:1003B0000394000C11F4882352F0BB0F40F4BF2BC0
:1003C00011F460FF04C06F5F7F4F8F4F9F4F089500
:0403D000F894FFCFCF
:1003D400CDCCCC3DCDCC4C3E9A99993ECDCCCC3EA7
:1003E4000000003F9A99193F3333333FCDCC4C3F43
:0803F4006666663F0000803FD1
:00000001FF
