:100000000C9434000C943E000C943E000C943E0082
:100010000C943E000C943E000C943E000C943E0068
:100020000C943E000C943E000C943E000C943E0058
:100030000C943E000C943E000C943E000C943E0048
:100040000C943E000C943E000C943E000C943E0038
:100050000C943E000C943E000C943E000C943E0028
:100060000C943E000C943E0011241FBECFEFD8E04C
:10007000DEBFCDBF0E946F000C947B000C9400008B
:10008000CF93DF9300D000D0CDB7DEB7AB01BC017A
:100090001C821B828B819C81092E000CAA0BBB0B3E
:1000A00084179507A607B70798F41A8219828981E1
:1000B0009A81883E934034F489819A8101969A838B
:1000C0008983F5CF8B819C8101969C838B83E2CFC2
:1000D0000F900F900F900F90DF91CF910895219A7C
:1000E000C2E085B18C2785B964EF71E080E090E0D3
:0A00F0000E944000F6CFF894FFCF05
:00000001FF
