:100000000C9434000C943E000C943E000C943E0082
:100010000C943E000C943E000C943E000C943E0068
:100020000C943E000C943E000C943E000C943E0058
:100030000C943E000C943E000C943E000C943E0048
:100040000C943E000C943E000C943E000C943E0038
:100050000C943E000C943E000C943E000C943E0028
:100060000C943E000C943E0011241FBECFEFD8E04C
:10007000DEBFCDBF0E9440000C9459000C940000DC
:10008000209A289A95B181E0911180E085B94A992A
:10009000FECF8FE19EE40197F1F700C000004A997E
:1000A00005C095B181E0911180E085B94A9BFECFF2
:0600B000EECFF894FFCF33
:00000001FF
